{
  "contractName": "SolnSquareVerifier",
  "abi": [
    {
      "inputs": [
        {
          "internalType": "address",
          "name": "squareVerifierAdr",
          "type": "address"
        }
      ],
      "stateMutability": "nonpayable",
      "type": "constructor"
    },
    {
      "anonymous": false,
      "inputs": [
        {
          "indexed": true,
          "internalType": "address",
          "name": "owner",
          "type": "address"
        },
        {
          "indexed": true,
          "internalType": "address",
          "name": "approved",
          "type": "address"
        },
        {
          "indexed": true,
          "internalType": "uint256",
          "name": "tokenId",
          "type": "uint256"
        }
      ],
      "name": "Approval",
      "type": "event"
    },
    {
      "anonymous": false,
      "inputs": [
        {
          "indexed": true,
          "internalType": "address",
          "name": "owner",
          "type": "address"
        },
        {
          "indexed": true,
          "internalType": "address",
          "name": "operator",
          "type": "address"
        },
        {
          "indexed": false,
          "internalType": "bool",
          "name": "approved",
          "type": "bool"
        }
      ],
      "name": "ApprovalForAll",
      "type": "event"
    },
    {
      "anonymous": false,
      "inputs": [
        {
          "indexed": false,
          "internalType": "address",
          "name": "oldOwner",
          "type": "address"
        },
        {
          "indexed": false,
          "internalType": "address",
          "name": "newOwner",
          "type": "address"
        }
      ],
      "name": "OwnershipTransferred",
      "type": "event"
    },
    {
      "anonymous": false,
      "inputs": [
        {
          "indexed": false,
          "internalType": "address",
          "name": "adr",
          "type": "address"
        }
      ],
      "name": "Paused",
      "type": "event"
    },
    {
      "anonymous": false,
      "inputs": [
        {
          "indexed": false,
          "internalType": "uint256",
          "name": "index",
          "type": "uint256"
        },
        {
          "indexed": false,
          "internalType": "address",
          "name": "sender",
          "type": "address"
        },
        {
          "indexed": false,
          "internalType": "uint256",
          "name": "input",
          "type": "uint256"
        }
      ],
      "name": "SolutionAdded",
      "type": "event"
    },
    {
      "anonymous": false,
      "inputs": [
        {
          "indexed": true,
          "internalType": "address",
          "name": "from",
          "type": "address"
        },
        {
          "indexed": true,
          "internalType": "address",
          "name": "to",
          "type": "address"
        },
        {
          "indexed": true,
          "internalType": "uint256",
          "name": "tokenId",
          "type": "uint256"
        }
      ],
      "name": "Transfer",
      "type": "event"
    },
    {
      "anonymous": false,
      "inputs": [
        {
          "indexed": false,
          "internalType": "address",
          "name": "adr",
          "type": "address"
        }
      ],
      "name": "Unpaused",
      "type": "event"
    },
    {
      "inputs": [
        {
          "internalType": "address",
          "name": "to",
          "type": "address"
        },
        {
          "internalType": "uint256",
          "name": "tokenId",
          "type": "uint256"
        }
      ],
      "name": "approve",
      "outputs": [],
      "stateMutability": "nonpayable",
      "type": "function"
    },
    {
      "inputs": [
        {
          "internalType": "address",
          "name": "owner",
          "type": "address"
        }
      ],
      "name": "balanceOf",
      "outputs": [
        {
          "internalType": "uint256",
          "name": "",
          "type": "uint256"
        }
      ],
      "stateMutability": "view",
      "type": "function",
      "constant": true
    },
    {
      "inputs": [],
      "name": "baseTokenURI",
      "outputs": [
        {
          "internalType": "string",
          "name": "",
          "type": "string"
        }
      ],
      "stateMutability": "view",
      "type": "function",
      "constant": true
    },
    {
      "inputs": [
        {
          "internalType": "uint256",
          "name": "tokenId",
          "type": "uint256"
        }
      ],
      "name": "getApproved",
      "outputs": [
        {
          "internalType": "address",
          "name": "",
          "type": "address"
        }
      ],
      "stateMutability": "view",
      "type": "function",
      "constant": true
    },
    {
      "inputs": [
        {
          "internalType": "address",
          "name": "owner",
          "type": "address"
        },
        {
          "internalType": "address",
          "name": "operator",
          "type": "address"
        }
      ],
      "name": "isApprovedForAll",
      "outputs": [
        {
          "internalType": "bool",
          "name": "",
          "type": "bool"
        }
      ],
      "stateMutability": "view",
      "type": "function",
      "constant": true
    },
    {
      "inputs": [
        {
          "internalType": "address",
          "name": "to",
          "type": "address"
        },
        {
          "internalType": "uint256",
          "name": "tokenId",
          "type": "uint256"
        }
      ],
      "name": "mint",
      "outputs": [
        {
          "internalType": "bool",
          "name": "",
          "type": "bool"
        }
      ],
      "stateMutability": "nonpayable",
      "type": "function"
    },
    {
      "inputs": [],
      "name": "name",
      "outputs": [
        {
          "internalType": "string",
          "name": "",
          "type": "string"
        }
      ],
      "stateMutability": "view",
      "type": "function",
      "constant": true
    },
    {
      "inputs": [],
      "name": "owner",
      "outputs": [
        {
          "internalType": "address",
          "name": "",
          "type": "address"
        }
      ],
      "stateMutability": "view",
      "type": "function",
      "constant": true
    },
    {
      "inputs": [
        {
          "internalType": "uint256",
          "name": "tokenId",
          "type": "uint256"
        }
      ],
      "name": "ownerOf",
      "outputs": [
        {
          "internalType": "address",
          "name": "",
          "type": "address"
        }
      ],
      "stateMutability": "view",
      "type": "function",
      "constant": true
    },
    {
      "inputs": [
        {
          "internalType": "address",
          "name": "from",
          "type": "address"
        },
        {
          "internalType": "address",
          "name": "to",
          "type": "address"
        },
        {
          "internalType": "uint256",
          "name": "tokenId",
          "type": "uint256"
        }
      ],
      "name": "safeTransferFrom",
      "outputs": [],
      "stateMutability": "nonpayable",
      "type": "function"
    },
    {
      "inputs": [
        {
          "internalType": "address",
          "name": "from",
          "type": "address"
        },
        {
          "internalType": "address",
          "name": "to",
          "type": "address"
        },
        {
          "internalType": "uint256",
          "name": "tokenId",
          "type": "uint256"
        },
        {
          "internalType": "bytes",
          "name": "_data",
          "type": "bytes"
        }
      ],
      "name": "safeTransferFrom",
      "outputs": [],
      "stateMutability": "nonpayable",
      "type": "function"
    },
    {
      "inputs": [
        {
          "internalType": "address",
          "name": "to",
          "type": "address"
        },
        {
          "internalType": "bool",
          "name": "approved",
          "type": "bool"
        }
      ],
      "name": "setApprovalForAll",
      "outputs": [],
      "stateMutability": "nonpayable",
      "type": "function"
    },
    {
      "inputs": [
        {
          "internalType": "bool",
          "name": "pause",
          "type": "bool"
        }
      ],
      "name": "setPaused",
      "outputs": [],
      "stateMutability": "nonpayable",
      "type": "function"
    },
    {
      "inputs": [
        {
          "internalType": "bytes4",
          "name": "interfaceId",
          "type": "bytes4"
        }
      ],
      "name": "supportsInterface",
      "outputs": [
        {
          "internalType": "bool",
          "name": "",
          "type": "bool"
        }
      ],
      "stateMutability": "view",
      "type": "function",
      "constant": true
    },
    {
      "inputs": [],
      "name": "symbol",
      "outputs": [
        {
          "internalType": "string",
          "name": "",
          "type": "string"
        }
      ],
      "stateMutability": "view",
      "type": "function",
      "constant": true
    },
    {
      "inputs": [
        {
          "internalType": "uint256",
          "name": "index",
          "type": "uint256"
        }
      ],
      "name": "tokenByIndex",
      "outputs": [
        {
          "internalType": "uint256",
          "name": "",
          "type": "uint256"
        }
      ],
      "stateMutability": "view",
      "type": "function",
      "constant": true
    },
    {
      "inputs": [
        {
          "internalType": "address",
          "name": "owner",
          "type": "address"
        },
        {
          "internalType": "uint256",
          "name": "index",
          "type": "uint256"
        }
      ],
      "name": "tokenOfOwnerByIndex",
      "outputs": [
        {
          "internalType": "uint256",
          "name": "",
          "type": "uint256"
        }
      ],
      "stateMutability": "view",
      "type": "function",
      "constant": true
    },
    {
      "inputs": [
        {
          "internalType": "uint256",
          "name": "tokenId",
          "type": "uint256"
        }
      ],
      "name": "tokenURI",
      "outputs": [
        {
          "internalType": "string",
          "name": "",
          "type": "string"
        }
      ],
      "stateMutability": "view",
      "type": "function",
      "constant": true
    },
    {
      "inputs": [],
      "name": "totalSupply",
      "outputs": [
        {
          "internalType": "uint256",
          "name": "",
          "type": "uint256"
        }
      ],
      "stateMutability": "view",
      "type": "function",
      "constant": true
    },
    {
      "inputs": [
        {
          "internalType": "address",
          "name": "from",
          "type": "address"
        },
        {
          "internalType": "address",
          "name": "to",
          "type": "address"
        },
        {
          "internalType": "uint256",
          "name": "tokenId",
          "type": "uint256"
        }
      ],
      "name": "transferFrom",
      "outputs": [],
      "stateMutability": "nonpayable",
      "type": "function"
    },
    {
      "inputs": [
        {
          "internalType": "address",
          "name": "newOwner",
          "type": "address"
        }
      ],
      "name": "transferOwnership",
      "outputs": [],
      "stateMutability": "nonpayable",
      "type": "function"
    },
    {
      "inputs": [
        {
          "internalType": "address",
          "name": "to",
          "type": "address"
        },
        {
          "internalType": "uint256",
          "name": "tokenId",
          "type": "uint256"
        },
        {
          "internalType": "uint256[2]",
          "name": "a",
          "type": "uint256[2]"
        },
        {
          "internalType": "uint256[2][2]",
          "name": "b",
          "type": "uint256[2][2]"
        },
        {
          "internalType": "uint256[2]",
          "name": "c",
          "type": "uint256[2]"
        },
        {
          "internalType": "uint256[2]",
          "name": "input",
          "type": "uint256[2]"
        }
      ],
      "name": "verifyMint",
      "outputs": [],
      "stateMutability": "nonpayable",
      "type": "function"
    }
  ],
  "bytecode": "0x60806040523480156200001157600080fd5b5060405162003a6c38038062003a6c8339818101604052810190620000379190620003d1565b6040518060400160405280601281526020017f4d794c6974746c65486f757365546f6b656e00000000000000000000000000008152506040518060400160405280600381526020017f4d4c4800000000000000000000000000000000000000000000000000000000008152506040518060600160405280603f815260200162003a2d603f9139336000806101000a81548173ffffffffffffffffffffffffffffffffffffffff021916908373ffffffffffffffffffffffffffffffffffffffff1602179055507f8be0079c531659141344cd1fd0a4f28419497f9722a3daafe3b4186f6b6457e060008060009054906101000a900473ffffffffffffffffffffffffffffffffffffffff166040516200015292919062000414565b60405180910390a160008060146101000a81548160ff0219169083151502179055506200018c6301ffc9a760e01b6200026a60201b60201c565b620001a46380ac58cd60e01b6200026a60201b60201c565b620001bc63780e9d6360e01b6200026a60201b60201c565b82600a9080519060200190620001d49291906200030a565b5081600b9080519060200190620001ed9291906200030a565b5080600c9080519060200190620002069291906200030a565b506200021f635b5e139f60e01b6200026a60201b60201c565b50505080600e60006101000a81548173ffffffffffffffffffffffffffffffffffffffff021916908373ffffffffffffffffffffffffffffffffffffffff16021790555050620004f9565b63ffffffff60e01b817bffffffffffffffffffffffffffffffffffffffffffffffffffffffff191614156200029e57600080fd5b6001806000837bffffffffffffffffffffffffffffffffffffffffffffffffffffffff19167bffffffffffffffffffffffffffffffffffffffffffffffffffffffff1916815260200190815260200160002060006101000a81548160ff02191690831515021790555050565b828054620003189062000475565b90600052602060002090601f0160209004810192826200033c576000855562000388565b82601f106200035757805160ff191683800117855562000388565b8280016001018555821562000388579182015b82811115620003875782518255916020019190600101906200036a565b5b5090506200039791906200039b565b5090565b5b80821115620003b65760008160009055506001016200039c565b5090565b600081519050620003cb81620004df565b92915050565b600060208284031215620003ea57620003e9620004da565b5b6000620003fa84828501620003ba565b91505092915050565b6200040e8162000441565b82525050565b60006040820190506200042b600083018562000403565b6200043a602083018462000403565b9392505050565b60006200044e8262000455565b9050919050565b600073ffffffffffffffffffffffffffffffffffffffff82169050919050565b600060028204905060018216806200048e57607f821691505b60208210811415620004a557620004a4620004ab565b5b50919050565b7f4e487b7100000000000000000000000000000000000000000000000000000000600052602260045260246000fd5b600080fd5b620004ea8162000441565b8114620004f657600080fd5b50565b61352480620005096000396000f3fe608060405234801561001057600080fd5b50600436106101425760003560e01c80636352211e116100b8578063a22cb4651161007c578063a22cb4651461039b578063b88d4fde146103b7578063c87b56dd146103d3578063d547cfb714610403578063e985e9c514610421578063f2fde38b1461045157610142565b80636352211e146102e357806370a082311461031357806381087b70146103435780638da5cb5b1461035f57806395d89b411461037d57610142565b806318160ddd1161010a57806318160ddd146101fd57806323b872dd1461021b5780632f745c591461023757806340c10f191461026757806342842e0e146102975780634f6ccce7146102b357610142565b806301ffc9a71461014757806306fdde0314610177578063081812fc14610195578063095ea7b3146101c557806316c38b3c146101e1575b600080fd5b610161600480360381019061015c91906125e3565b61046d565b60405161016e9190612b79565b60405180910390f35b61017f6104d5565b60405161018c9190612b94565b60405180910390f35b6101af60048036038101906101aa919061263d565b610567565b6040516101bc9190612aa2565b60405180910390f35b6101df60048036038101906101da91906124b9565b6105a4565b005b6101fb60048036038101906101f69190612589565b61078b565b005b6102056108b0565b6040516102129190612d16565b60405180910390f35b610235600480360381019061023091906123a3565b6108bd565b005b610251600480360381019061024c91906124b9565b6108e0565b60405161025e9190612d16565b60405180910390f35b610281600480360381019061027c91906124b9565b61095a565b60405161028e9190612b79565b60405180910390f35b6102b160048036038101906102ac91906123a3565b610a08565b005b6102cd60048036038101906102c8919061263d565b610a28565b6040516102da9190612d16565b60405180910390f35b6102fd60048036038101906102f8919061263d565b610a63565b60405161030a9190612aa2565b60405180910390f35b61032d60048036038101906103289190612336565b610aa0565b60405161033a9190612d16565b60405180910390f35b61035d600480360381019061035891906124f9565b610af0565b005b610367610d25565b6040516103749190612aa2565b60405180910390f35b610385610d4e565b6040516103929190612b94565b60405180910390f35b6103b560048036038101906103b09190612479565b610de0565b005b6103d160048036038101906103cc91906123f6565b610f16565b005b6103ed60048036038101906103e8919061263d565b610f3c565b6040516103fa9190612b94565b60405180910390f35b61040b611029565b6040516104189190612b94565b60405180910390f35b61043b60048036038101906104369190612363565b6110bb565b6040516104489190612b79565b60405180910390f35b61046b60048036038101906104669190612336565b61114f565b005b600060016000837bffffffffffffffffffffffffffffffffffffffffffffffffffffffff19167bffffffffffffffffffffffffffffffffffffffffffffffffffffffff1916815260200190815260200160002060009054906101000a900460ff169050919050565b6060600a80546104e490613062565b80601f016020809104026020016040519081016040528092919081815260200182805461051090613062565b801561055d5780601f106105325761010080835404028352916020019161055d565b820191906000526020600020905b81548152906001019060200180831161054057829003601f168201915b5050505050905090565b60006003600083815260200190815260200160002060009054906101000a900473ffffffffffffffffffffffffffffffffffffffff169050919050565b6002600082815260200190815260200160002060009054906101000a900473ffffffffffffffffffffffffffffffffffffffff1673ffffffffffffffffffffffffffffffffffffffff168273ffffffffffffffffffffffffffffffffffffffff161415610646576040517f08c379a000000000000000000000000000000000000000000000000000000000815260040161063d90612bf6565b60405180910390fd5b61064e610d25565b73ffffffffffffffffffffffffffffffffffffffff163373ffffffffffffffffffffffffffffffffffffffff161480610694575061069361068d610d25565b336110bb565b5b6106d3576040517f08c379a00000000000000000000000000000000000000000000000000000000081526004016106ca90612cb6565b60405180910390fd5b816003600083815260200190815260200160002060006101000a81548173ffffffffffffffffffffffffffffffffffffffff021916908373ffffffffffffffffffffffffffffffffffffffff160217905550808273ffffffffffffffffffffffffffffffffffffffff16610745610d25565b73ffffffffffffffffffffffffffffffffffffffff167f8c5be1e5ebec7d5bd14f71427d1e84f3dd0314c0f7b2291e5b200ac8c7c3b92560405160405180910390a45050565b60008054906101000a900473ffffffffffffffffffffffffffffffffffffffff1673ffffffffffffffffffffffffffffffffffffffff163373ffffffffffffffffffffffffffffffffffffffff1614610819576040517f08c379a000000000000000000000000000000000000000000000000000000000815260040161081090612c16565b60405180910390fd5b80600060146101000a81548160ff0219169083151502179055508015610875577f62e78cea01bee320cd4e420270b5ea74000d11b0c9f74754ebdbfc544b05a258336040516108689190612aa2565b60405180910390a16108ad565b7f5db9ee0a495bf2e6ff9c91a7834c1ba4fdd244a5e8aa4e537bd38aeae4b073aa336040516108a49190612aa2565b60405180910390a15b50565b6000600880549050905090565b6108c73382611280565b6108d057600080fd5b6108db838383611315565b505050565b60006108eb83610aa0565b82106108f657600080fd5b600660008473ffffffffffffffffffffffffffffffffffffffff1673ffffffffffffffffffffffffffffffffffffffff1681526020019081526020016000208281548110610947576109466131fb565b5b9060005260206000200154905092915050565b60008060009054906101000a900473ffffffffffffffffffffffffffffffffffffffff1673ffffffffffffffffffffffffffffffffffffffff163373ffffffffffffffffffffffffffffffffffffffff16146109eb576040517f08c379a00000000000000000000000000000000000000000000000000000000081526004016109e290612c16565b60405180910390fd5b6109f58383611339565b6109fe8261135a565b6001905092915050565b610a2383838360405180602001604052806000815250610f16565b505050565b6000610a326108b0565b8210610a3d57600080fd5b60088281548110610a5157610a506131fb565b5b90600052602060002001549050919050565b60006002600083815260200190815260200160002060009054906101000a900473ffffffffffffffffffffffffffffffffffffffff169050919050565b6000610ae9600460008473ffffffffffffffffffffffffffffffffffffffff1673ffffffffffffffffffffffffffffffffffffffff1681526020019081526020016000206113fd565b9050919050565b60008054906101000a900473ffffffffffffffffffffffffffffffffffffffff1673ffffffffffffffffffffffffffffffffffffffff163373ffffffffffffffffffffffffffffffffffffffff1614610b7e576040517f08c379a0000000000000000000000000000000000000000000000000000000008152600401610b7590612c16565b60405180910390fd5b60006010600083600060028110610b9857610b976131fb565b5b6020020151815260200190815260200160002060009054906101000a900460ff1615610bf9576040517f08c379a0000000000000000000000000000000000000000000000000000000008152600401610bf090612c96565b60405180910390fd5b6000600e60009054906101000a900473ffffffffffffffffffffffffffffffffffffffff1673ffffffffffffffffffffffffffffffffffffffff1663621e9ec0878787876040518563ffffffff1660e01b8152600401610c5c9493929190612b32565b60206040518083038186803b158015610c7457600080fd5b505afa158015610c88573d6000803e3d6000fd5b505050506040513d601f19601f82011682018060405250810190610cac91906125b6565b905080610cee576040517f08c379a0000000000000000000000000000000000000000000000000000000008152600401610ce590612c56565b60405180910390fd5b610cf8888861095a565b50610d1b8884600060028110610d1157610d106131fb565b5b602002015161140b565b5050505050505050565b60008060009054906101000a900473ffffffffffffffffffffffffffffffffffffffff16905090565b6060600b8054610d5d90613062565b80601f0160208091040260200160405190810160405280929190818152602001828054610d8990613062565b8015610dd65780601f10610dab57610100808354040283529160200191610dd6565b820191906000526020600020905b815481529060010190602001808311610db957829003601f168201915b5050505050905090565b3373ffffffffffffffffffffffffffffffffffffffff168273ffffffffffffffffffffffffffffffffffffffff161415610e1957600080fd5b80600560003373ffffffffffffffffffffffffffffffffffffffff1673ffffffffffffffffffffffffffffffffffffffff16815260200190815260200160002060008473ffffffffffffffffffffffffffffffffffffffff1673ffffffffffffffffffffffffffffffffffffffff16815260200190815260200160002060006101000a81548160ff0219169083151502179055508173ffffffffffffffffffffffffffffffffffffffff163373ffffffffffffffffffffffffffffffffffffffff167f17307eab39ab6107e8899845ad3d59bd9653f200f220920489ca2b5937696c3183604051610f0a9190612b79565b60405180910390a35050565b610f218484846108bd565b610f2d848484846115be565b610f3657600080fd5b50505050565b6060610f47826116d5565b610f86576040517f08c379a0000000000000000000000000000000000000000000000000000000008152600401610f7d90612bd6565b60405180910390fd5b600d60008381526020019081526020016000208054610fa490613062565b80601f0160208091040260200160405190810160405280929190818152602001828054610fd090613062565b801561101d5780601f10610ff25761010080835404028352916020019161101d565b820191906000526020600020905b81548152906001019060200180831161100057829003601f168201915b50505050509050919050565b6060600c805461103890613062565b80601f016020809104026020016040519081016040528092919081815260200182805461106490613062565b80156110b15780601f10611086576101008083540402835291602001916110b1565b820191906000526020600020905b81548152906001019060200180831161109457829003601f168201915b5050505050905090565b6000600560008473ffffffffffffffffffffffffffffffffffffffff1673ffffffffffffffffffffffffffffffffffffffff16815260200190815260200160002060008373ffffffffffffffffffffffffffffffffffffffff1673ffffffffffffffffffffffffffffffffffffffff16815260200190815260200160002060009054906101000a900460ff16905092915050565b60008054906101000a900473ffffffffffffffffffffffffffffffffffffffff1673ffffffffffffffffffffffffffffffffffffffff163373ffffffffffffffffffffffffffffffffffffffff16146111dd576040517f08c379a00000000000000000000000000000000000000000000000000000000081526004016111d490612c16565b60405180910390fd5b60008060009054906101000a900473ffffffffffffffffffffffffffffffffffffffff169050816000806101000a81548173ffffffffffffffffffffffffffffffffffffffff021916908373ffffffffffffffffffffffffffffffffffffffff1602179055507f8be0079c531659141344cd1fd0a4f28419497f9722a3daafe3b4186f6b6457e08183604051611274929190612abd565b60405180910390a15050565b60008061128c83610a63565b90508073ffffffffffffffffffffffffffffffffffffffff168473ffffffffffffffffffffffffffffffffffffffff1614806112fb57508373ffffffffffffffffffffffffffffffffffffffff166112e384610567565b73ffffffffffffffffffffffffffffffffffffffff16145b8061130c575061130b81856110bb565b5b91505092915050565b611320838383611747565b61132a83826119e9565b6113348282611ba0565b505050565b6113438282611c64565b61134d8282611ba0565b61135681611e4c565b5050565b611363816116d5565b6113a2576040517f08c379a000000000000000000000000000000000000000000000000000000000815260040161139990612bd6565b60405180910390fd5b60006113ad82611e95565b9050600c816040516020016113c3929190612a7e565b604051602081830303815290604052600d600084815260200190815260200160002090805190602001906113f8929190612081565b505050565b600081600001549050919050565b60008054906101000a900473ffffffffffffffffffffffffffffffffffffffff1673ffffffffffffffffffffffffffffffffffffffff163373ffffffffffffffffffffffffffffffffffffffff1614611499576040517f08c379a000000000000000000000000000000000000000000000000000000000815260040161149090612c16565b60405180910390fd5b6000600f805490509050600060405180604001604052808381526020018573ffffffffffffffffffffffffffffffffffffffff168152509050600f8190806001815401808255809150506001900390600052602060002090600202016000909190919091506000820151816000015560208201518160010160006101000a81548173ffffffffffffffffffffffffffffffffffffffff021916908373ffffffffffffffffffffffffffffffffffffffff160217905550505060016010600085815260200190815260200160002060006101000a81548160ff0219169083151502179055507fba1403a9b9df2b184867a255459e3d62a15a9590eb8b37e755a879b9d90826078285856040516115b093929190612d31565b60405180910390a150505050565b60006115df8473ffffffffffffffffffffffffffffffffffffffff16611ffc565b6115ec57600190506116cd565b60008473ffffffffffffffffffffffffffffffffffffffff1663150b7a02338887876040518563ffffffff1660e01b815260040161162d9493929190612ae6565b602060405180830381600087803b15801561164757600080fd5b505af115801561165b573d6000803e3d6000fd5b505050506040513d601f19601f8201168201806040525081019061167f9190612610565b905063150b7a0260e01b7bffffffffffffffffffffffffffffffffffffffffffffffffffffffff1916817bffffffffffffffffffffffffffffffffffffffffffffffffffffffff1916149150505b949350505050565b6000806002600084815260200190815260200160002060009054906101000a900473ffffffffffffffffffffffffffffffffffffffff169050600073ffffffffffffffffffffffffffffffffffffffff168173ffffffffffffffffffffffffffffffffffffffff161415915050919050565b6002600082815260200190815260200160002060009054906101000a900473ffffffffffffffffffffffffffffffffffffffff1673ffffffffffffffffffffffffffffffffffffffff168373ffffffffffffffffffffffffffffffffffffffff16146117e8576040517f08c379a00000000000000000000000000000000000000000000000000000000081526004016117df90612cd6565b60405180910390fd5b8173ffffffffffffffffffffffffffffffffffffffff168273ffffffffffffffffffffffffffffffffffffffff1614611856576040517f08c379a000000000000000000000000000000000000000000000000000000000815260040161184d90612c76565b60405180910390fd5b60006003600083815260200190815260200160002060006101000a81548173ffffffffffffffffffffffffffffffffffffffff021916908373ffffffffffffffffffffffffffffffffffffffff1602179055506118f0600460008573ffffffffffffffffffffffffffffffffffffffff1673ffffffffffffffffffffffffffffffffffffffff16815260200190815260200160002061200f565b611937600460008473ffffffffffffffffffffffffffffffffffffffff1673ffffffffffffffffffffffffffffffffffffffff16815260200190815260200160002061206b565b816002600083815260200190815260200160002060006101000a81548173ffffffffffffffffffffffffffffffffffffffff021916908373ffffffffffffffffffffffffffffffffffffffff160217905550808273ffffffffffffffffffffffffffffffffffffffff168473ffffffffffffffffffffffffffffffffffffffff167fddf252ad1be2c89b69c2b068fc378daa952ba7f163c4a11628f55a4df523b3ef60405160405180910390a4505050565b60006001600660008573ffffffffffffffffffffffffffffffffffffffff1673ffffffffffffffffffffffffffffffffffffffff16815260200190815260200160002080549050611a3a9190612f4e565b9050600060076000848152602001908152602001600020549050818114611b35576000600660008673ffffffffffffffffffffffffffffffffffffffff1673ffffffffffffffffffffffffffffffffffffffff1681526020019081526020016000208381548110611aae57611aad6131fb565b5b9060005260206000200154905080600660008773ffffffffffffffffffffffffffffffffffffffff1673ffffffffffffffffffffffffffffffffffffffff1681526020019081526020016000208381548110611b0d57611b0c6131fb565b5b9060005260206000200181905550816007600083815260200190815260200160002081905550505b600660008573ffffffffffffffffffffffffffffffffffffffff1673ffffffffffffffffffffffffffffffffffffffff168152602001908152602001600020805480611b8457611b836131cc565b5b6001900381819060005260206000200160009055905550505050565b600660008373ffffffffffffffffffffffffffffffffffffffff1673ffffffffffffffffffffffffffffffffffffffff168152602001908152602001600020805490506007600083815260200190815260200160002081905550600660008373ffffffffffffffffffffffffffffffffffffffff1673ffffffffffffffffffffffffffffffffffffffff1681526020019081526020016000208190806001815401808255809150506001900390600052602060002001600090919091909150555050565b611c6d816116d5565b15611cad576040517f08c379a0000000000000000000000000000000000000000000000000000000008152600401611ca490612cf6565b60405180910390fd5b8173ffffffffffffffffffffffffffffffffffffffff168273ffffffffffffffffffffffffffffffffffffffff1614611d1b576040517f08c379a0000000000000000000000000000000000000000000000000000000008152600401611d1290612c36565b60405180910390fd5b60006002600083815260200190815260200160002060009054906101000a900473ffffffffffffffffffffffffffffffffffffffff169050826002600084815260200190815260200160002060006101000a81548173ffffffffffffffffffffffffffffffffffffffff021916908373ffffffffffffffffffffffffffffffffffffffff160217905550611dec600460008573ffffffffffffffffffffffffffffffffffffffff1673ffffffffffffffffffffffffffffffffffffffff16815260200190815260200160002061206b565b818373ffffffffffffffffffffffffffffffffffffffff168273ffffffffffffffffffffffffffffffffffffffff167fddf252ad1be2c89b69c2b068fc378daa952ba7f163c4a11628f55a4df523b3ef60405160405180910390a4505050565b6008805490506009600083815260200190815260200160002081905550600881908060018154018082558091505060019003906000526020600020016000909190919091505550565b60606000821415611edd576040518060400160405280600181526020017f30000000000000000000000000000000000000000000000000000000000000008152509050611ff7565b600082905060005b60008214611f0f578080611ef8906130c5565b915050600a82611f089190612f1d565b9150611ee5565b60008167ffffffffffffffff811115611f2b57611f2a61322a565b5b6040519080825280601f01601f191660200182016040528015611f5d5781602001600182028036833780820191505090505b50905060008290508593505b60008414611fef57600a84611f7e919061310e565b6030611f8a9190612ec7565b60f81b8282611f9890613038565b92508281518110611fac57611fab6131fb565b5b60200101907effffffffffffffffffffffffffffffffffffffffffffffffffffffffffffff1916908160001a905350600a84611fe89190612f1d565b9350611f69565b819450505050505b919050565b600080823b905060008111915050919050565b6000816000015490506000811161205b576040517f08c379a000000000000000000000000000000000000000000000000000000000815260040161205290612bb6565b60405180910390fd5b6001810382600001819055505050565b6001816000016000828254019250508190555050565b82805461208d90613062565b90600052602060002090601f0160209004810192826120af57600085556120f6565b82601f106120c857805160ff19168380011785556120f6565b828001600101855582156120f6579182015b828111156120f55782518255916020019190600101906120da565b5b5090506121039190612107565b5090565b5b80821115612120576000816000905550600101612108565b5090565b600061213761213284612d8d565b612d68565b905080828560408602820111156121515761215061325e565b5b60005b8581101561218157816121678882612274565b845260208401935060408301925050600181019050612154565b5050509392505050565b600061219e61219984612db3565b612d68565b905080828560208602820111156121b8576121b761325e565b5b60005b858110156121e857816121ce8882612321565b8452602084019350602083019250506001810190506121bb565b5050509392505050565b600061220561220084612dd9565b612d68565b90508281526020810184848401111561222157612220613263565b5b61222c848285612ff6565b509392505050565b60008135905061224381613492565b92915050565b600082601f83011261225e5761225d613259565b5b600261226b848285612124565b91505092915050565b600082601f83011261228957612288613259565b5b600261229684828561218b565b91505092915050565b6000813590506122ae816134a9565b92915050565b6000815190506122c3816134a9565b92915050565b6000813590506122d8816134c0565b92915050565b6000815190506122ed816134c0565b92915050565b600082601f83011261230857612307613259565b5b81356123188482602086016121f2565b91505092915050565b600081359050612330816134d7565b92915050565b60006020828403121561234c5761234b61326d565b5b600061235a84828501612234565b91505092915050565b6000806040838503121561237a5761237961326d565b5b600061238885828601612234565b925050602061239985828601612234565b9150509250929050565b6000806000606084860312156123bc576123bb61326d565b5b60006123ca86828701612234565b93505060206123db86828701612234565b92505060406123ec86828701612321565b9150509250925092565b600080600080608085870312156124105761240f61326d565b5b600061241e87828801612234565b945050602061242f87828801612234565b935050604061244087828801612321565b925050606085013567ffffffffffffffff81111561246157612460613268565b5b61246d878288016122f3565b91505092959194509250565b600080604083850312156124905761248f61326d565b5b600061249e85828601612234565b92505060206124af8582860161229f565b9150509250929050565b600080604083850312156124d0576124cf61326d565b5b60006124de85828601612234565b92505060206124ef85828601612321565b9150509250929050565b60008060008060008061018087890312156125175761251661326d565b5b600061252589828a01612234565b965050602061253689828a01612321565b955050604061254789828a01612274565b945050608061255889828a01612249565b93505061010061256a89828a01612274565b92505061014061257c89828a01612274565b9150509295509295509295565b60006020828403121561259f5761259e61326d565b5b60006125ad8482850161229f565b91505092915050565b6000602082840312156125cc576125cb61326d565b5b60006125da848285016122b4565b91505092915050565b6000602082840312156125f9576125f861326d565b5b6000612607848285016122c9565b91505092915050565b6000602082840312156126265761262561326d565b5b6000612634848285016122de565b91505092915050565b6000602082840312156126535761265261326d565b5b600061266184828501612321565b91505092915050565b60006126768383612700565b60408301905092915050565b600061268e8383612a60565b60208301905092915050565b6126a381612f82565b82525050565b6126b281612e33565b6126bc8184612e79565b92506126c782612e0a565b8060005b838110156126f85781516126df878261266a565b96506126ea83612e5f565b9250506001810190506126cb565b505050505050565b61270981612e3e565b6127138184612e84565b925061271e82612e14565b8060005b8381101561274f5781516127368782612682565b965061274183612e6c565b925050600181019050612722565b505050505050565b61276081612e3e565b61276a8184612e8f565b925061277582612e14565b8060005b838110156127a657815161278d8782612682565b965061279883612e6c565b925050600181019050612779565b505050505050565b6127b781612f94565b82525050565b60006127c882612e49565b6127d28185612e9a565b93506127e2818560208601613005565b6127eb81613272565b840191505092915050565b600061280182612e54565b61280b8185612eab565b935061281b818560208601613005565b61282481613272565b840191505092915050565b600061283a82612e54565b6128448185612ebc565b9350612854818560208601613005565b80840191505092915050565b6000815461286d81613062565b6128778186612ebc565b9450600182166000811461289257600181146128a3576128d6565b60ff198316865281860193506128d6565b6128ac85612e1e565b60005b838110156128ce578154818901526001820191506020810190506128af565b838801955050505b50505092915050565b60006128ec601b83612eab565b91506128f782613283565b602082019050919050565b600061290f601683612eab565b915061291a826132ac565b602082019050919050565b6000612932602483612eab565b915061293d826132d5565b604082019050919050565b6000612955601883612eab565b915061296082613324565b602082019050919050565b6000612978601883612eab565b91506129838261334d565b602082019050919050565b600061299b601b83612eab565b91506129a682613376565b602082019050919050565b60006129be601583612eab565b91506129c98261339f565b602082019050919050565b60006129e1601a83612eab565b91506129ec826133c8565b602082019050919050565b6000612a04602d83612eab565b9150612a0f826133f1565b604082019050919050565b6000612a27601383612eab565b9150612a3282613440565b602082019050919050565b6000612a4a601c83612eab565b9150612a5582613469565b602082019050919050565b612a6981612fec565b82525050565b612a7881612fec565b82525050565b6000612a8a8285612860565b9150612a96828461282f565b91508190509392505050565b6000602082019050612ab7600083018461269a565b92915050565b6000604082019050612ad2600083018561269a565b612adf602083018461269a565b9392505050565b6000608082019050612afb600083018761269a565b612b08602083018661269a565b612b156040830185612a6f565b8181036060830152612b2781846127bd565b905095945050505050565b600061014082019050612b486000830187612757565b612b5560408301866126a9565b612b6260c0830185612757565b612b70610100830184612757565b95945050505050565b6000602082019050612b8e60008301846127ae565b92915050565b60006020820190508181036000830152612bae81846127f6565b905092915050565b60006020820190508181036000830152612bcf816128df565b9050919050565b60006020820190508181036000830152612bef81612902565b9050919050565b60006020820190508181036000830152612c0f81612925565b9050919050565b60006020820190508181036000830152612c2f81612948565b9050919050565b60006020820190508181036000830152612c4f8161296b565b9050919050565b60006020820190508181036000830152612c6f8161298e565b9050919050565b60006020820190508181036000830152612c8f816129b1565b9050919050565b60006020820190508181036000830152612caf816129d4565b9050919050565b60006020820190508181036000830152612ccf816129f7565b9050919050565b60006020820190508181036000830152612cef81612a1a565b9050919050565b60006020820190508181036000830152612d0f81612a3d565b9050919050565b6000602082019050612d2b6000830184612a6f565b92915050565b6000606082019050612d466000830186612a6f565b612d53602083018561269a565b612d606040830184612a6f565b949350505050565b6000612d72612d83565b9050612d7e8282613094565b919050565b6000604051905090565b600067ffffffffffffffff821115612da857612da761322a565b5b602082029050919050565b600067ffffffffffffffff821115612dce57612dcd61322a565b5b602082029050919050565b600067ffffffffffffffff821115612df457612df361322a565b5b612dfd82613272565b9050602081019050919050565b6000819050919050565b6000819050919050565b60008190508160005260206000209050919050565b600060029050919050565b600060029050919050565b600081519050919050565b600081519050919050565b6000602082019050919050565b6000602082019050919050565b600081905092915050565b600081905092915050565b600081905092915050565b600082825260208201905092915050565b600082825260208201905092915050565b600081905092915050565b6000612ed282612fec565b9150612edd83612fec565b9250827fffffffffffffffffffffffffffffffffffffffffffffffffffffffffffffffff03821115612f1257612f1161313f565b5b828201905092915050565b6000612f2882612fec565b9150612f3383612fec565b925082612f4357612f4261316e565b5b828204905092915050565b6000612f5982612fec565b9150612f6483612fec565b925082821015612f7757612f7661313f565b5b828203905092915050565b6000612f8d82612fcc565b9050919050565b60008115159050919050565b60007fffffffff0000000000000000000000000000000000000000000000000000000082169050919050565b600073ffffffffffffffffffffffffffffffffffffffff82169050919050565b6000819050919050565b82818337600083830152505050565b60005b83811015613023578082015181840152602081019050613008565b83811115613032576000848401525b50505050565b600061304382612fec565b915060008214156130575761305661313f565b5b600182039050919050565b6000600282049050600182168061307a57607f821691505b6020821081141561308e5761308d61319d565b5b50919050565b61309d82613272565b810181811067ffffffffffffffff821117156130bc576130bb61322a565b5b80604052505050565b60006130d082612fec565b91507fffffffffffffffffffffffffffffffffffffffffffffffffffffffffffffffff8214156131035761310261313f565b5b600182019050919050565b600061311982612fec565b915061312483612fec565b9250826131345761313361316e565b5b828206905092915050565b7f4e487b7100000000000000000000000000000000000000000000000000000000600052601160045260246000fd5b7f4e487b7100000000000000000000000000000000000000000000000000000000600052601260045260246000fd5b7f4e487b7100000000000000000000000000000000000000000000000000000000600052602260045260246000fd5b7f4e487b7100000000000000000000000000000000000000000000000000000000600052603160045260246000fd5b7f4e487b7100000000000000000000000000000000000000000000000000000000600052603260045260246000fd5b7f4e487b7100000000000000000000000000000000000000000000000000000000600052604160045260246000fd5b600080fd5b600080fd5b600080fd5b600080fd5b600080fd5b6000601f19601f8301169050919050565b7f436f756e7465723a2064656372656d656e74206f766572666c6f770000000000600082015250565b7f746f6b656e496420646f6573206e6f7420657869737400000000000000000000600082015250565b7f676976656e2061646472657373206d7573746e277420626520746865206f776e60008201527f6572277300000000000000000000000000000000000000000000000000000000602082015250565b7f63616c6c6572206d75737420626520746865206f776e65720000000000000000600082015250565b7f676976656e206164647265737320697320696e76616c69640000000000000000600082015250565b7f70726f6f6620636f756c64206e6f742062652076657269666965640000000000600082015250565b7f6d7573742062652076616c696420616464726573730000000000000000000000600082015250565b7f70726f6f6620686173206265656e2075736564206265666f7265000000000000600082015250565b7f6e65656420746f20626520636f6e7472616374206f776e6572206f722061707060008201527f726f76656420666f7220616c6c00000000000000000000000000000000000000602082015250565b7f6d75737420626520746f6b656e206f776e657200000000000000000000000000600082015250565b7f676976656e20746f6b656e496420616c72656164792065786973747300000000600082015250565b61349b81612f82565b81146134a657600080fd5b50565b6134b281612f94565b81146134bd57600080fd5b50565b6134c981612fa0565b81146134d457600080fd5b50565b6134e081612fec565b81146134eb57600080fd5b5056fea2646970667358221220d0034c5eda691c6deed2b6a2cc12707884e2efa24472eebb4aca3f86073dc20d64736f6c6343000806003368747470733a2f2f73332d75732d776573742d322e616d617a6f6e6177732e636f6d2f756461636974792d626c6f636b636861696e2f63617073746f6e652f",
  "immutableReferences": {},
  "source": "// SPDX-License-Identifier: UNLICENSED\n\npragma solidity ^0.8.6;\n\n// define a contract call to the zokrates generated solidity contract <Verifier>\nimport './SquareVerifier.sol';\nimport './ERC721Mintable.sol';\n\n// define another contract named SolnSquareVerifier that inherits from your ERC721Mintable class\ncontract SolnSquareVerifier is MyLittleHouseToken {\n\n    SquareVerifier private verifier;\n\n    constructor (address squareVerifierAdr) MyLittleHouseToken() {\n        verifier = SquareVerifier(squareVerifierAdr);\n    }\n\n    // define a solutions struct that can hold an index & an address\n    struct Solution {\n        uint256 index;\n        address sender;\n    }\n\n    // define an array of the above struct\n    Solution[] private solutions;\n\n    // define a mapping to store unique solutions submitted\n    mapping(uint256 => bool) private uniqueSolutions;\n\n    // Create an event to emit when a solution is added\n    event SolutionAdded(uint256 index, address sender, uint256 input);\n\n    // Create a function to add the solutions to the array and emit the event\n    function addSolution\n    (\n        address sender,\n        uint256 input\n    )\n        internal\n        onlyOwner\n    {\n        uint256 index = solutions.length;\n        Solution memory newSolution = Solution({\n            index: index,\n            sender: sender\n        });\n        solutions.push(newSolution);\n        uniqueSolutions[input] = true;\n        emit SolutionAdded(index, sender, input);\n    }\n\n    // Create a function to mint new NFT\n    function verifyMint\n    (\n        address to,\n        uint256 tokenId,\n        uint256[2] memory a,\n        uint256[2][2] memory b,\n        uint256[2] memory c,\n        uint256[2] memory input\n    )\n        public\n        onlyOwner\n    {\n        bool debug = false;\n\n        //  - make sure the solution is unique (has not been used before)\n        require(!uniqueSolutions[input[0]], 'proof has been used before');\n\n        //  - mint new NFT only after the solution has been verified\n        bool verified = verifier.verifyTx(a, b, c, input);\n        require(verified, 'proof could not be verified');\n        super.mint(to, tokenId);\n\n        //  - make sure you handle metadata as well as token supply\n        addSolution(to, input[0]);\n    }\n\n}\n",
  "sourcePath": "/home/julian/Development/blockchain/15-Capstone/eth-contracts/contracts/SolnSquareVerifier.sol",
  "compiler": {
    "name": "solc",
    "version": "0.8.6+commit.11564f7e.Emscripten.clang"
  },
  "schemaVersion": "3.4.1",
  "updatedAt": "2021-07-20T18:35:10.072Z",
  "networkType": "ethereum",
  "devdoc": {
    "kind": "dev",
    "methods": {
      "isApprovedForAll(address,address)": {
        "details": "Tells whether an operator is approved by a given owner",
        "params": {
          "operator": "operator address which you want to query the approval of",
          "owner": "owner address which you want to query the approval of"
        },
        "returns": {
          "_0": "bool whether the given operator is approved by the given owner"
        }
      },
      "setApprovalForAll(address,bool)": {
        "details": "Sets or unsets the approval of a given operator An operator is allowed to transfer all tokens of the sender on their behalf",
        "params": {
          "approved": "representing the status of the approval to be set",
          "to": "operator address to set the approval"
        }
      },
      "supportsInterface(bytes4)": {
        "details": "implement supportsInterface(bytes4) using a lookup table"
      },
      "tokenByIndex(uint256)": {
        "details": "Gets the token ID at a given index of all the tokens in this contract Reverts if the index is greater or equal to the total number of tokens",
        "params": {
          "index": "uint256 representing the index to be accessed of the tokens list"
        },
        "returns": {
          "_0": "uint256 token ID at the given index of the tokens list"
        }
      },
      "tokenOfOwnerByIndex(address,uint256)": {
        "details": "Gets the token ID at a given index of the tokens list of the requested owner",
        "params": {
          "index": "uint256 representing the index to be accessed of the requested tokens list",
          "owner": "address owning the tokens list to be accessed"
        },
        "returns": {
          "_0": "uint256 token ID at the given index of the tokens list owned by the requested address"
        }
      },
      "totalSupply()": {
        "details": "Gets the total amount of tokens stored by the contract",
        "returns": {
          "_0": "uint256 representing the total amount of tokens"
        }
      }
    },
    "version": 1
  },
  "userdoc": {
    "kind": "user",
    "methods": {},
    "version": 1
  }
}